{
  "contractName": "Bridge",
  "abi": [
    {
      "inputs": [
        {
          "internalType": "uint8",
          "name": "chainID",
          "type": "uint8"
        },
        {
          "internalType": "address[]",
          "name": "initialRelayers",
          "type": "address[]"
        },
        {
          "internalType": "uint256",
          "name": "initialRelayerThreshold",
          "type": "uint256"
        },
        {
          "internalType": "uint256",
          "name": "fee",
          "type": "uint256"
        },
        {
          "internalType": "uint256",
          "name": "expiry",
          "type": "uint256"
        }
      ],
      "stateMutability": "nonpayable",
      "type": "constructor"
    },
    {
      "anonymous": false,
      "inputs": [
        {
          "indexed": true,
          "internalType": "uint8",
          "name": "destinationChainID",
          "type": "uint8"
        },
        {
          "indexed": true,
          "internalType": "bytes32",
          "name": "resourceID",
          "type": "bytes32"
        },
        {
          "indexed": true,
          "internalType": "uint64",
          "name": "depositNonce",
          "type": "uint64"
        }
      ],
      "name": "Deposit",
      "type": "event"
    },
    {
      "anonymous": false,
      "inputs": [
        {
          "indexed": false,
          "internalType": "address",
          "name": "account",
          "type": "address"
        }
      ],
      "name": "Paused",
      "type": "event"
    },
    {
      "anonymous": false,
      "inputs": [
        {
          "indexed": true,
          "internalType": "uint8",
          "name": "originChainID",
          "type": "uint8"
        },
        {
          "indexed": true,
          "internalType": "uint64",
          "name": "depositNonce",
          "type": "uint64"
        },
        {
          "indexed": true,
          "internalType": "enum Bridge.ProposalStatus",
          "name": "status",
          "type": "uint8"
        },
        {
          "indexed": false,
          "internalType": "bytes32",
          "name": "resourceID",
          "type": "bytes32"
        },
        {
          "indexed": false,
          "internalType": "bytes32",
          "name": "dataHash",
          "type": "bytes32"
        }
      ],
      "name": "ProposalEvent",
      "type": "event"
    },
    {
      "anonymous": false,
      "inputs": [
        {
          "indexed": true,
          "internalType": "uint8",
          "name": "originChainID",
          "type": "uint8"
        },
        {
          "indexed": true,
          "internalType": "uint64",
          "name": "depositNonce",
          "type": "uint64"
        },
        {
          "indexed": true,
          "internalType": "enum Bridge.ProposalStatus",
          "name": "status",
          "type": "uint8"
        },
        {
          "indexed": false,
          "internalType": "bytes32",
          "name": "resourceID",
          "type": "bytes32"
        }
      ],
      "name": "ProposalVote",
      "type": "event"
    },
    {
      "anonymous": false,
      "inputs": [
        {
          "indexed": true,
          "internalType": "address",
          "name": "relayer",
          "type": "address"
        }
      ],
      "name": "RelayerAdded",
      "type": "event"
    },
    {
      "anonymous": false,
      "inputs": [
        {
          "indexed": true,
          "internalType": "address",
          "name": "relayer",
          "type": "address"
        }
      ],
      "name": "RelayerRemoved",
      "type": "event"
    },
    {
      "anonymous": false,
      "inputs": [
        {
          "indexed": true,
          "internalType": "uint256",
          "name": "newThreshold",
          "type": "uint256"
        }
      ],
      "name": "RelayerThresholdChanged",
      "type": "event"
    },
    {
      "anonymous": false,
      "inputs": [
        {
          "indexed": true,
          "internalType": "bytes32",
          "name": "role",
          "type": "bytes32"
        },
        {
          "indexed": true,
          "internalType": "bytes32",
          "name": "previousAdminRole",
          "type": "bytes32"
        },
        {
          "indexed": true,
          "internalType": "bytes32",
          "name": "newAdminRole",
          "type": "bytes32"
        }
      ],
      "name": "RoleAdminChanged",
      "type": "event"
    },
    {
      "anonymous": false,
      "inputs": [
        {
          "indexed": true,
          "internalType": "bytes32",
          "name": "role",
          "type": "bytes32"
        },
        {
          "indexed": true,
          "internalType": "address",
          "name": "account",
          "type": "address"
        },
        {
          "indexed": true,
          "internalType": "address",
          "name": "sender",
          "type": "address"
        }
      ],
      "name": "RoleGranted",
      "type": "event"
    },
    {
      "anonymous": false,
      "inputs": [
        {
          "indexed": true,
          "internalType": "bytes32",
          "name": "role",
          "type": "bytes32"
        },
        {
          "indexed": true,
          "internalType": "address",
          "name": "account",
          "type": "address"
        },
        {
          "indexed": true,
          "internalType": "address",
          "name": "sender",
          "type": "address"
        }
      ],
      "name": "RoleRevoked",
      "type": "event"
    },
    {
      "anonymous": false,
      "inputs": [
        {
          "indexed": false,
          "internalType": "address",
          "name": "account",
          "type": "address"
        }
      ],
      "name": "Unpaused",
      "type": "event"
    },
    {
      "inputs": [],
      "name": "DEFAULT_ADMIN_ROLE",
      "outputs": [
        {
          "internalType": "bytes32",
          "name": "",
          "type": "bytes32"
        }
      ],
      "stateMutability": "view",
      "type": "function"
    },
    {
      "inputs": [],
      "name": "RELAYER_ROLE",
      "outputs": [
        {
          "internalType": "bytes32",
          "name": "",
          "type": "bytes32"
        }
      ],
      "stateMutability": "view",
      "type": "function"
    },
    {
      "inputs": [],
      "name": "_chainID",
      "outputs": [
        {
          "internalType": "uint8",
          "name": "",
          "type": "uint8"
        }
      ],
      "stateMutability": "view",
      "type": "function"
    },
    {
      "inputs": [
        {
          "internalType": "uint8",
          "name": "",
          "type": "uint8"
        }
      ],
      "name": "_depositCounts",
      "outputs": [
        {
          "internalType": "uint64",
          "name": "",
          "type": "uint64"
        }
      ],
      "stateMutability": "view",
      "type": "function"
    },
    {
      "inputs": [
        {
          "internalType": "uint64",
          "name": "",
          "type": "uint64"
        },
        {
          "internalType": "uint8",
          "name": "",
          "type": "uint8"
        }
      ],
      "name": "_depositRecords",
      "outputs": [
        {
          "internalType": "bytes",
          "name": "",
          "type": "bytes"
        }
      ],
      "stateMutability": "view",
      "type": "function"
    },
    {
      "inputs": [],
      "name": "_expiry",
      "outputs": [
        {
          "internalType": "uint256",
          "name": "",
          "type": "uint256"
        }
      ],
      "stateMutability": "view",
      "type": "function"
    },
    {
      "inputs": [],
      "name": "_fee",
      "outputs": [
        {
          "internalType": "uint256",
          "name": "",
          "type": "uint256"
        }
      ],
      "stateMutability": "view",
      "type": "function"
    },
    {
      "inputs": [
        {
          "internalType": "uint72",
          "name": "",
          "type": "uint72"
        },
        {
          "internalType": "bytes32",
          "name": "",
          "type": "bytes32"
        },
        {
          "internalType": "address",
          "name": "",
          "type": "address"
        }
      ],
      "name": "_hasVotedOnProposal",
      "outputs": [
        {
          "internalType": "bool",
          "name": "",
          "type": "bool"
        }
      ],
      "stateMutability": "view",
      "type": "function"
    },
    {
      "inputs": [
        {
          "internalType": "uint72",
          "name": "",
          "type": "uint72"
        },
        {
          "internalType": "bytes32",
          "name": "",
          "type": "bytes32"
        }
      ],
      "name": "_proposals",
      "outputs": [
        {
          "internalType": "bytes32",
          "name": "_resourceID",
          "type": "bytes32"
        },
        {
          "internalType": "bytes32",
          "name": "_dataHash",
          "type": "bytes32"
        },
        {
          "internalType": "enum Bridge.ProposalStatus",
          "name": "_status",
          "type": "uint8"
        },
        {
          "internalType": "uint256",
          "name": "_proposedBlock",
          "type": "uint256"
        }
      ],
      "stateMutability": "view",
      "type": "function"
    },
    {
      "inputs": [],
      "name": "_relayerThreshold",
      "outputs": [
        {
          "internalType": "uint256",
          "name": "",
          "type": "uint256"
        }
      ],
      "stateMutability": "view",
      "type": "function"
    },
    {
      "inputs": [
        {
          "internalType": "bytes32",
          "name": "",
          "type": "bytes32"
        }
      ],
      "name": "_resourceIDToHandlerAddress",
      "outputs": [
        {
          "internalType": "address",
          "name": "",
          "type": "address"
        }
      ],
      "stateMutability": "view",
      "type": "function"
    },
    {
      "inputs": [],
      "name": "_totalProposals",
      "outputs": [
        {
          "internalType": "uint256",
          "name": "",
          "type": "uint256"
        }
      ],
      "stateMutability": "view",
      "type": "function"
    },
    {
      "inputs": [],
      "name": "_totalRelayers",
      "outputs": [
        {
          "internalType": "uint256",
          "name": "",
          "type": "uint256"
        }
      ],
      "stateMutability": "view",
      "type": "function"
    },
    {
      "inputs": [
        {
          "internalType": "bytes32",
          "name": "role",
          "type": "bytes32"
        }
      ],
      "name": "getRoleAdmin",
      "outputs": [
        {
          "internalType": "bytes32",
          "name": "",
          "type": "bytes32"
        }
      ],
      "stateMutability": "view",
      "type": "function"
    },
    {
      "inputs": [
        {
          "internalType": "bytes32",
          "name": "role",
          "type": "bytes32"
        },
        {
          "internalType": "uint256",
          "name": "index",
          "type": "uint256"
        }
      ],
      "name": "getRoleMember",
      "outputs": [
        {
          "internalType": "address",
          "name": "",
          "type": "address"
        }
      ],
      "stateMutability": "view",
      "type": "function"
    },
    {
      "inputs": [
        {
          "internalType": "bytes32",
          "name": "role",
          "type": "bytes32"
        }
      ],
      "name": "getRoleMemberCount",
      "outputs": [
        {
          "internalType": "uint256",
          "name": "",
          "type": "uint256"
        }
      ],
      "stateMutability": "view",
      "type": "function"
    },
    {
      "inputs": [
        {
          "internalType": "bytes32",
          "name": "role",
          "type": "bytes32"
        },
        {
          "internalType": "address",
          "name": "account",
          "type": "address"
        }
      ],
      "name": "grantRole",
      "outputs": [],
      "stateMutability": "nonpayable",
      "type": "function"
    },
    {
      "inputs": [
        {
          "internalType": "bytes32",
          "name": "role",
          "type": "bytes32"
        },
        {
          "internalType": "address",
          "name": "account",
          "type": "address"
        }
      ],
      "name": "hasRole",
      "outputs": [
        {
          "internalType": "bool",
          "name": "",
          "type": "bool"
        }
      ],
      "stateMutability": "view",
      "type": "function"
    },
    {
      "inputs": [],
      "name": "paused",
      "outputs": [
        {
          "internalType": "bool",
          "name": "",
          "type": "bool"
        }
      ],
      "stateMutability": "view",
      "type": "function"
    },
    {
      "inputs": [
        {
          "internalType": "bytes32",
          "name": "role",
          "type": "bytes32"
        },
        {
          "internalType": "address",
          "name": "account",
          "type": "address"
        }
      ],
      "name": "renounceRole",
      "outputs": [],
      "stateMutability": "nonpayable",
      "type": "function"
    },
    {
      "inputs": [
        {
          "internalType": "bytes32",
          "name": "role",
          "type": "bytes32"
        },
        {
          "internalType": "address",
          "name": "account",
          "type": "address"
        }
      ],
      "name": "revokeRole",
      "outputs": [],
      "stateMutability": "nonpayable",
      "type": "function"
    },
    {
      "inputs": [
        {
          "internalType": "address",
          "name": "relayer",
          "type": "address"
        }
      ],
      "name": "isRelayer",
      "outputs": [
        {
          "internalType": "bool",
          "name": "",
          "type": "bool"
        }
      ],
      "stateMutability": "view",
      "type": "function"
    },
    {
      "inputs": [
        {
          "internalType": "address",
          "name": "newAdmin",
          "type": "address"
        }
      ],
      "name": "renounceAdmin",
      "outputs": [],
      "stateMutability": "nonpayable",
      "type": "function"
    },
    {
      "inputs": [],
      "name": "adminPauseTransfers",
      "outputs": [],
      "stateMutability": "nonpayable",
      "type": "function"
    },
    {
      "inputs": [],
      "name": "adminUnpauseTransfers",
      "outputs": [],
      "stateMutability": "nonpayable",
      "type": "function"
    },
    {
      "inputs": [
        {
          "internalType": "uint256",
          "name": "newThreshold",
          "type": "uint256"
        }
      ],
      "name": "adminChangeRelayerThreshold",
      "outputs": [],
      "stateMutability": "nonpayable",
      "type": "function"
    },
    {
      "inputs": [
        {
          "internalType": "address",
          "name": "relayerAddress",
          "type": "address"
        }
      ],
      "name": "adminAddRelayer",
      "outputs": [],
      "stateMutability": "nonpayable",
      "type": "function"
    },
    {
      "inputs": [
        {
          "internalType": "address",
          "name": "relayerAddress",
          "type": "address"
        }
      ],
      "name": "adminRemoveRelayer",
      "outputs": [],
      "stateMutability": "nonpayable",
      "type": "function"
    },
    {
      "inputs": [
        {
          "internalType": "address",
          "name": "handlerAddress",
          "type": "address"
        },
        {
          "internalType": "bytes32",
          "name": "resourceID",
          "type": "bytes32"
        },
        {
          "internalType": "address",
          "name": "tokenAddress",
          "type": "address"
        }
      ],
      "name": "adminSetResource",
      "outputs": [],
      "stateMutability": "nonpayable",
      "type": "function"
    },
    {
      "inputs": [
        {
          "internalType": "address",
          "name": "handlerAddress",
          "type": "address"
        },
        {
          "internalType": "address",
          "name": "tokenAddress",
          "type": "address"
        }
      ],
      "name": "adminSetBurnable",
      "outputs": [],
      "stateMutability": "nonpayable",
      "type": "function"
    },
    {
      "inputs": [
        {
          "internalType": "uint8",
          "name": "originChainID",
          "type": "uint8"
        },
        {
          "internalType": "uint64",
          "name": "depositNonce",
          "type": "uint64"
        },
        {
          "internalType": "bytes32",
          "name": "dataHash",
          "type": "bytes32"
        }
      ],
      "name": "getProposal",
      "outputs": [
        {
          "components": [
            {
              "internalType": "bytes32",
              "name": "_resourceID",
              "type": "bytes32"
            },
            {
              "internalType": "bytes32",
              "name": "_dataHash",
              "type": "bytes32"
            },
            {
              "internalType": "address[]",
              "name": "_yesVotes",
              "type": "address[]"
            },
            {
              "internalType": "address[]",
              "name": "_noVotes",
              "type": "address[]"
            },
            {
              "internalType": "enum Bridge.ProposalStatus",
              "name": "_status",
              "type": "uint8"
            },
            {
              "internalType": "uint256",
              "name": "_proposedBlock",
              "type": "uint256"
            }
          ],
          "internalType": "struct Bridge.Proposal",
          "name": "",
          "type": "tuple"
        }
      ],
      "stateMutability": "view",
      "type": "function"
    },
    {
      "inputs": [
        {
          "internalType": "uint256",
          "name": "newFee",
          "type": "uint256"
        }
      ],
      "name": "adminChangeFee",
      "outputs": [],
      "stateMutability": "nonpayable",
      "type": "function"
    },
    {
      "inputs": [
        {
          "internalType": "address",
          "name": "handlerAddress",
          "type": "address"
        },
        {
          "internalType": "address",
          "name": "tokenAddress",
          "type": "address"
        },
        {
          "internalType": "address",
          "name": "recipient",
          "type": "address"
        },
        {
          "internalType": "uint256",
          "name": "amount",
          "type": "uint256"
        }
      ],
      "name": "adminWithdraw",
      "outputs": [],
      "stateMutability": "nonpayable",
      "type": "function"
    },
    {
      "inputs": [
        {
          "internalType": "uint8",
          "name": "destinationChainID",
          "type": "uint8"
        },
        {
          "internalType": "bytes32",
          "name": "resourceID",
          "type": "bytes32"
        },
        {
          "internalType": "bytes",
          "name": "data",
          "type": "bytes"
        }
      ],
      "name": "deposit",
      "outputs": [],
      "stateMutability": "payable",
      "type": "function"
    },
    {
      "inputs": [
        {
          "internalType": "uint8",
          "name": "chainID",
          "type": "uint8"
        },
        {
          "internalType": "uint64",
          "name": "depositNonce",
          "type": "uint64"
        },
        {
          "internalType": "bytes32",
          "name": "resourceID",
          "type": "bytes32"
        },
        {
          "internalType": "bytes32",
          "name": "dataHash",
          "type": "bytes32"
        }
      ],
      "name": "voteProposal",
      "outputs": [],
      "stateMutability": "nonpayable",
      "type": "function"
    },
    {
      "inputs": [
        {
          "internalType": "uint8",
          "name": "chainID",
          "type": "uint8"
        },
        {
          "internalType": "uint64",
          "name": "depositNonce",
          "type": "uint64"
        },
        {
          "internalType": "bytes32",
          "name": "dataHash",
          "type": "bytes32"
        }
      ],
      "name": "cancelProposal",
      "outputs": [],
      "stateMutability": "nonpayable",
      "type": "function"
    },
    {
      "inputs": [
        {
          "internalType": "uint8",
          "name": "chainID",
          "type": "uint8"
        },
        {
          "internalType": "uint64",
          "name": "depositNonce",
          "type": "uint64"
        },
        {
          "internalType": "bytes",
          "name": "data",
          "type": "bytes"
        },
        {
          "internalType": "bytes32",
          "name": "resourceID",
          "type": "bytes32"
        }
      ],
      "name": "executeProposal",
      "outputs": [],
      "stateMutability": "nonpayable",
      "type": "function"
    },
    {
      "inputs": [
        {
          "internalType": "address payable[]",
          "name": "addrs",
          "type": "address[]"
        },
        {
          "internalType": "uint256[]",
          "name": "amounts",
          "type": "uint256[]"
        }
      ],
      "name": "transferFunds",
      "outputs": [],
      "stateMutability": "nonpayable",
      "type": "function"
    }
  ],
  "bytecode": "0x60806040523480156200001157600080fd5b5060405162004b8138038062004b8183398181016040528101906200003791906200051d565b60008060006101000a81548160ff02191690831515021790555084600260006101000a81548160ff021916908360ff160217905550826003819055508160068190555080600781905550620000966000801b336200015060201b60201c565b620000cb7fe2b7fb3b832174769106daebcfd6d1970523240dda11281102db9363b83b0dc46000801b6200016660201b60201c565b60008451905060005b818110156200014357620001237fe2b7fb3b832174769106daebcfd6d1970523240dda11281102db9363b83b0dc48783815181106200010f57fe5b6020026020010151620001ca60201b60201c565b6004600081548092919060010191905055508080600101915050620000d4565b5050505050505062000743565b6200016282826200025960201b60201c565b5050565b806001600084815260200190815260200160002060020154837fbd79b86ffe0ab8e8776151514217cd7cacd52c909f66475c3af44e129f0b00ff60405160405180910390a48060016000848152602001908152602001600020600201819055505050565b620002016001600084815260200190815260200160002060020154620001f5620002fd60201b60201c565b6200030560201b60201c565b62000243576040517f08c379a00000000000000000000000000000000000000000000000000000000081526004016200023a9062000620565b60405180910390fd5b6200025582826200025960201b60201c565b5050565b6200028881600160008581526020019081526020016000206000016200033e60201b620023521790919060201c565b15620002f9576200029e620002fd60201b60201c565b73ffffffffffffffffffffffffffffffffffffffff168173ffffffffffffffffffffffffffffffffffffffff16837f2f8788117e7eff1d82e926ec794901d17c78024a50270940304540a733656f0d60405160405180910390a45b5050565b600033905090565b60006200033682600160008681526020019081526020016000206000016200037660201b620023821790919060201c565b905092915050565b60006200036e836000018373ffffffffffffffffffffffffffffffffffffffff1660001b620003ae60201b60201c565b905092915050565b6000620003a6836000018373ffffffffffffffffffffffffffffffffffffffff1660001b6200042860201b60201c565b905092915050565b6000620003c283836200042860201b60201c565b6200041d57826000018290806001815401808255809150506001900390600052602060002001600090919091909150558260000180549050836001016000848152602001908152602001600020819055506001905062000422565b600090505b92915050565b600080836001016000848152602001908152602001600020541415905092915050565b6000815190506200045c81620006f5565b92915050565b600082601f8301126200047457600080fd5b81516200048b620004858262000670565b62000642565b91508181835260208401935060208101905083856020840282011115620004b157600080fd5b60005b83811015620004e55781620004ca88826200044b565b845260208401935060208301925050600181019050620004b4565b5050505092915050565b60008151905062000500816200070f565b92915050565b600081519050620005178162000729565b92915050565b600080600080600060a086880312156200053657600080fd5b6000620005468882890162000506565b955050602086015167ffffffffffffffff8111156200056457600080fd5b620005728882890162000462565b94505060406200058588828901620004ef565b93505060606200059888828901620004ef565b9250506080620005ab88828901620004ef565b9150509295509295909350565b6000620005c7602f8362000699565b91507f416363657373436f6e74726f6c3a2073656e646572206d75737420626520616e60008301527f2061646d696e20746f206772616e7400000000000000000000000000000000006020830152604082019050919050565b600060208201905081810360008301526200063b81620005b8565b9050919050565b6000604051905081810181811067ffffffffffffffff821117156200066657600080fd5b8060405250919050565b600067ffffffffffffffff8211156200068857600080fd5b602082029050602081019050919050565b600082825260208201905092915050565b6000620006b782620006be565b9050919050565b600073ffffffffffffffffffffffffffffffffffffffff82169050919050565b6000819050919050565b600060ff82169050919050565b6200070081620006aa565b81146200070c57600080fd5b50565b6200071a81620006de565b81146200072657600080fd5b50565b6200073481620006e8565b81146200074057600080fd5b50565b61442e80620007536000396000f3fe6080604052600436106102255760003560e01c806384db809f11610123578063a9cf69fa116100ab578063cb10f2151161006f578063cb10f21514610843578063cdb0f73a1461086c578063d547741f14610895578063d7a9cd79146108be578063ffaac0eb146108e957610225565b8063a9cf69fa14610748578063beab713114610785578063c5b37c22146107b0578063c5ec8970146107db578063ca15c8731461080657610225565b806391d14854116100f257806391d1485414610661578063926d7d7f1461069e5780639d5773e0146106c95780639d82dd63146106f4578063a217fddf1461071d57610225565b806384db809f146105955780638c0c2631146105d25780639010d07c146105fb57806391c404ac1461063857610225565b80634b0b919d116101b15780635e1fab0f116101755780635e1fab0f146104c4578063780cf004146104ed5780637febe63f14610516578063802aabe81461055357806380ae1c281461057e57610225565b80634b0b919d146103b65780634e056005146103f3578063505987191461041c578063541d55481461045c5780635c975abb1461049957610225565b80632f2ff15d116101f85780632f2ff15d146102d557806336568abe146102fe5780633ee7094a146103275780634454b20d146103645780634603ae381461038d57610225565b806305e2ca171461022a57806317f03ce5146102465780631ff013f11461026f578063248a9ca314610298575b600080fd5b610244600480360381019061023f91906130f5565b610900565b005b34801561025257600080fd5b5061026d60048036038101906102689190613161565b610b5d565b005b34801561027b57600080fd5b50610296600480360381019061029191906131b0565b610d0a565b005b3480156102a457600080fd5b506102bf60048036038101906102ba9190612f3b565b6114b9565b6040516102cc9190613c7e565b60405180910390f35b3480156102e157600080fd5b506102fc60048036038101906102f79190612f64565b6114d9565b005b34801561030a57600080fd5b5061032560048036038101906103209190612f64565b61154d565b005b34801561033357600080fd5b5061034e60048036038101906103499190613005565b6115d0565b60405161035b9190613dbe565b60405180910390f35b34801561037057600080fd5b5061038b60048036038101906103869190613213565b61168d565b005b34801561039957600080fd5b506103b460048036038101906103af9190612ec6565b611963565b005b3480156103c257600080fd5b506103dd60048036038101906103d891906130cc565b611a54565b6040516103ea919061411f565b60405180910390f35b3480156103ff57600080fd5b5061041a60048036038101906104159190612fdc565b611a7b565b005b34801561042857600080fd5b50610443600480360381019061043e9190613041565b611aba565b6040516104539493929190613ceb565b60405180910390f35b34801561046857600080fd5b50610483600480360381019061047e9190612d86565b611b04565b6040516104909190613c63565b60405180910390f35b3480156104a557600080fd5b506104ae611b37565b6040516104bb9190613c63565b60405180910390f35b3480156104d057600080fd5b506104eb60048036038101906104e69190612d86565b611b4d565b005b3480156104f957600080fd5b50610514600480360381019061050f9190612e14565b611b72565b005b34801561052257600080fd5b5061053d6004803603810190610538919061307d565b611bf5565b60405161054a9190613c63565b60405180910390f35b34801561055f57600080fd5b50610568611c31565b6040516105759190614104565b60405180910390f35b34801561058a57600080fd5b50610593611c37565b005b3480156105a157600080fd5b506105bc60048036038101906105b79190612f3b565b611c49565b6040516105c99190613bf6565b60405180910390f35b3480156105de57600080fd5b506105f960048036038101906105f49190612dd8565b611c7c565b005b34801561060757600080fd5b50610622600480360381019061061d9190612fa0565b611cf9565b60405161062f9190613bf6565b60405180910390f35b34801561064457600080fd5b5061065f600480360381019061065a9190612fdc565b611d2b565b005b34801561066d57600080fd5b5061068860048036038101906106839190612f64565b611d82565b6040516106959190613c63565b60405180910390f35b3480156106aa57600080fd5b506106b3611db4565b6040516106c09190613c7e565b60405180910390f35b3480156106d557600080fd5b506106de611dd8565b6040516106eb9190614104565b60405180910390f35b34801561070057600080fd5b5061071b60048036038101906107169190612d86565b611dde565b005b34801561072957600080fd5b50610732611ed2565b60405161073f9190613c7e565b60405180910390f35b34801561075457600080fd5b5061076f600480360381019061076a9190613161565b611ed9565b60405161077c91906140e2565b60405180910390f35b34801561079157600080fd5b5061079a6120ba565b6040516107a7919061413a565b60405180910390f35b3480156107bc57600080fd5b506107c56120cd565b6040516107d29190614104565b60405180910390f35b3480156107e757600080fd5b506107f06120d3565b6040516107fd9190614104565b60405180910390f35b34801561081257600080fd5b5061082d60048036038101906108289190612f3b565b6120d9565b60405161083a9190614104565b60405180910390f35b34801561084f57600080fd5b5061086a60048036038101906108659190612e77565b612100565b005b34801561087857600080fd5b50610893600480360381019061088e9190612d86565b6121d2565b005b3480156108a157600080fd5b506108bc60048036038101906108b79190612f64565b6122c6565b005b3480156108ca57600080fd5b506108d361233a565b6040516108e09190614104565b60405180910390f35b3480156108f557600080fd5b506108fe612340565b005b6109086123b2565b600654341461094c576040517f08c379a000000000000000000000000000000000000000000000000000000000815260040161094390613f02565b60405180910390fd5b60006009600085815260200190815260200160002060009054906101000a900473ffffffffffffffffffffffffffffffffffffffff169050600073ffffffffffffffffffffffffffffffffffffffff168173ffffffffffffffffffffffffffffffffffffffff1614156109f4576040517f08c379a00000000000000000000000000000000000000000000000000000000081526004016109eb90613f62565b60405180910390fd5b6000600860008760ff1660ff168152602001908152602001600020600081819054906101000a900467ffffffffffffffff1660010191906101000a81548167ffffffffffffffff021916908367ffffffffffffffff160217905590508383600a60008467ffffffffffffffff1667ffffffffffffffff16815260200190815260200160002060008960ff1660ff1681526020019081526020016000209190610a9d929190612a6c565b5060008290508073ffffffffffffffffffffffffffffffffffffffff166338995da9878985338a8a6040518763ffffffff1660e01b8152600401610ae696959493929190613d62565b600060405180830381600087803b158015610b0057600080fd5b505af1158015610b14573d6000803e3d6000fd5b505050508167ffffffffffffffff16868860ff167fdbb69440df8433824a026ef190652f29929eb64b4d1d5d2a69be8afe3e6eaed860405160405180910390a450505050505050565b610b65612402565b60008360ff1660088467ffffffffffffffff1668ffffffffffffffffff16901b1790506000600b60008368ffffffffffffffffff1668ffffffffffffffffff16815260200190815260200160002060008481526020019081526020016000209050600480811115610bd257fe5b8160040160009054906101000a900460ff166004811115610bef57fe5b1415610c30576040517f08c379a0000000000000000000000000000000000000000000000000000000008152600401610c2790613f42565b60405180910390fd5b600754610c41438360050154612481565b11610c81576040517f08c379a0000000000000000000000000000000000000000000000000000000008152600401610c7890613fa2565b60405180910390fd5b60048160040160006101000a81548160ff02191690836004811115610ca257fe5b0217905550600480811115610cb357fe5b8467ffffffffffffffff168660ff167f803c5a12f6bde629cea32e63d4b92d1b560816a6fb72e939d3c89e1cab65041784600001548560010154604051610cfb929190613cc2565b60405180910390a45050505050565b610d126124cb565b610d1a6123b2565b60008460ff1660088567ffffffffffffffff1668ffffffffffffffffff16901b1790506000600b60008368ffffffffffffffffff1668ffffffffffffffffff16815260200190815260200160002060008481526020019081526020016000209050600073ffffffffffffffffffffffffffffffffffffffff166009600086815260200190815260200160002060009054906101000a900473ffffffffffffffffffffffffffffffffffffffff1673ffffffffffffffffffffffffffffffffffffffff161415610e1e576040517f08c379a0000000000000000000000000000000000000000000000000000000008152600401610e15906140a2565b60405180910390fd5b60018160040160009054906101000a900460ff166004811115610e3d57fe5b1115610e7e576040517f08c379a0000000000000000000000000000000000000000000000000000000008152600401610e7590614002565b60405180910390fd5b600c60008368ffffffffffffffffff1668ffffffffffffffffff168152602001908152602001600020600084815260200190815260200160002060003373ffffffffffffffffffffffffffffffffffffffff1673ffffffffffffffffffffffffffffffffffffffff16815260200190815260200160002060009054906101000a900460ff1615610f43576040517f08c379a0000000000000000000000000000000000000000000000000000000008152600401610f3a90613ea2565b60405180910390fd5b60008160040160009054906101000a900460ff166004811115610f6257fe5b14156111b057600560008154600101919050819055506040518060c00160405280858152602001848152602001600167ffffffffffffffff81118015610fa757600080fd5b50604051908082528060200260200182016040528015610fd65781602001602082028036833780820191505090505b508152602001600067ffffffffffffffff81118015610ff457600080fd5b506040519080825280602002602001820160405280156110235781602001602082028036833780820191505090505b5081526020016001600481111561103657fe5b815260200143815250600b60008468ffffffffffffffffff1668ffffffffffffffffff1681526020019081526020016000206000858152602001908152602001600020600082015181600001556020820151816001015560408201518160020190805190602001906110a9929190612aec565b5060608201518160030190805190602001906110c6929190612aec565b5060808201518160040160006101000a81548160ff021916908360048111156110eb57fe5b021790555060a08201518160050155905050338160020160008154811061110e57fe5b9060005260206000200160006101000a81548173ffffffffffffffffffffffffffffffffffffffff021916908373ffffffffffffffffffffffffffffffffffffffff1602179055506001600481111561116357fe5b8567ffffffffffffffff168760ff167f803c5a12f6bde629cea32e63d4b92d1b560816a6fb72e939d3c89e1cab65041787876040516111a3929190613cc2565b60405180910390a46112f3565b6007546111c1438360050154612481565b11156112465760048160040160006101000a81548160ff021916908360048111156111e857fe5b02179055506004808111156111f957fe5b8567ffffffffffffffff168760ff167f803c5a12f6bde629cea32e63d4b92d1b560816a6fb72e939d3c89e1cab6504178787604051611239929190613cc2565b60405180910390a46112f2565b8060010154831461128c576040517f08c379a000000000000000000000000000000000000000000000000000000000815260040161128390614082565b60405180910390fd5b80600201339080600181540180825580915050600190039060005260206000200160009091909190916101000a81548173ffffffffffffffffffffffffffffffffffffffff021916908373ffffffffffffffffffffffffffffffffffffffff1602179055505b5b6004808111156112ff57fe5b8160040160009054906101000a900460ff16600481111561131c57fe5b146114b1576001600c60008468ffffffffffffffffff1668ffffffffffffffffff168152602001908152602001600020600085815260200190815260200160002060003373ffffffffffffffffffffffffffffffffffffffff1673ffffffffffffffffffffffffffffffffffffffff16815260200190815260200160002060006101000a81548160ff0219169083151502179055508060040160009054906101000a900460ff1660048111156113ce57fe5b8567ffffffffffffffff168760ff167f25f8daaa4635a7729927ba3f5b3d59cc3320aca7c32c9db4e7ca7b95743436408760405161140c9190613c7e565b60405180910390a4600160035411158061142f5750600354816002018054905010155b156114b05760028160040160006101000a81548160ff0219169083600481111561145557fe5b02179055506002600481111561146757fe5b8567ffffffffffffffff168760ff167f803c5a12f6bde629cea32e63d4b92d1b560816a6fb72e939d3c89e1cab65041787876040516114a7929190613cc2565b60405180910390a45b5b505050505050565b600060016000838152602001908152602001600020600201549050919050565b61150060016000848152602001908152602001600020600201546114fb612536565b611d82565b61153f576040517f08c379a000000000000000000000000000000000000000000000000000000000815260040161153690613e82565b60405180910390fd5b611549828261253e565b5050565b611555612536565b73ffffffffffffffffffffffffffffffffffffffff168173ffffffffffffffffffffffffffffffffffffffff16146115c2576040517f08c379a00000000000000000000000000000000000000000000000000000000081526004016115b9906140c2565b60405180910390fd5b6115cc82826125d2565b5050565b600a602052816000526040600020602052806000526040600020600091509150508054600181600116156101000203166002900480601f0160208091040260200160405190810160405280929190818152602001828054600181600116156101000203166002900480156116855780601f1061165a57610100808354040283529160200191611685565b820191906000526020600020905b81548152906001019060200180831161166857829003601f168201915b505050505081565b6116956124cb565b61169d6123b2565b60006009600083815260200190815260200160002060009054906101000a900473ffffffffffffffffffffffffffffffffffffffff16905060008660ff1660088767ffffffffffffffff1668ffffffffffffffffff16901b179050600082868660405160200161170f93929190613bcc565b6040516020818303038152906040528051906020012090506000600b60008468ffffffffffffffffff1668ffffffffffffffffff168152602001908152602001600020600083815260200190815260200160002090506002600481111561177257fe5b8160040160009054906101000a900460ff16600481111561178f57fe5b146117cf576040517f08c379a00000000000000000000000000000000000000000000000000000000081526004016117c690613e02565b60405180910390fd5b80600101548214611815576040517f08c379a000000000000000000000000000000000000000000000000000000000815260040161180c90613f22565b60405180910390fd5b60038160040160006101000a81548160ff0219169083600481111561183657fe5b02179055506000600960008360000154815260200190815260200160002060009054906101000a900473ffffffffffffffffffffffffffffffffffffffff1690508073ffffffffffffffffffffffffffffffffffffffff1663e248cff283600001548a8a6040518463ffffffff1660e01b81526004016118b893929190613d30565b600060405180830381600087803b1580156118d257600080fd5b505af11580156118e6573d6000803e3d6000fd5b505050508160040160009054906101000a900460ff16600481111561190757fe5b8967ffffffffffffffff168b60ff167f803c5a12f6bde629cea32e63d4b92d1b560816a6fb72e939d3c89e1cab6504178560000154866001015460405161194f929190613cc2565b60405180910390a450505050505050505050565b61196b612666565b8181905084849050146119b3576040517f08c379a00000000000000000000000000000000000000000000000000000000081526004016119aa90613e62565b60405180910390fd5b600084849050905060005b81811015611a4c578585828181106119d257fe5b90506020020160208101906119e79190612daf565b73ffffffffffffffffffffffffffffffffffffffff166108fc858584818110611a0c57fe5b905060200201359081150290604051600060405180830381858888f19350505050158015611a3e573d6000803e3d6000fd5b5080806001019150506119be565b505050505050565b60086020528060005260406000206000915054906101000a900467ffffffffffffffff1681565b611a83612666565b80600381905550807fa20d6b84cd798a24038be305eff8a45ca82ef54a2aa2082005d8e14c0a4746c860405160405180910390a250565b600b602052816000526040600020602052806000526040600020600091509150508060000154908060010154908060040160009054906101000a900460ff16908060050154905084565b6000611b307fe2b7fb3b832174769106daebcfd6d1970523240dda11281102db9363b83b0dc483611d82565b9050919050565b60008060009054906101000a900460ff16905090565b611b55612666565b611b626000801b826114d9565b611b6f6000801b3361154d565b50565b611b7a612666565b60008490508073ffffffffffffffffffffffffffffffffffffffff1663d9caed128585856040518463ffffffff1660e01b8152600401611bbc93929190613c2c565b600060405180830381600087803b158015611bd657600080fd5b505af1158015611bea573d6000803e3d6000fd5b505050505050505050565b600c602052826000526040600020602052816000526040600020602052806000526040600020600092509250509054906101000a900460ff1681565b60045481565b611c3f612666565b611c476126b4565b565b60096020528060005260406000206000915054906101000a900473ffffffffffffffffffffffffffffffffffffffff1681565b611c84612666565b60008290508073ffffffffffffffffffffffffffffffffffffffff166307b7ed99836040518263ffffffff1660e01b8152600401611cc29190613bf6565b600060405180830381600087803b158015611cdc57600080fd5b505af1158015611cf0573d6000803e3d6000fd5b50505050505050565b6000611d23826001600086815260200190815260200160002060000161270f90919063ffffffff16565b905092915050565b611d33612666565b806006541415611d78576040517f08c379a0000000000000000000000000000000000000000000000000000000008152600401611d6f90614062565b60405180910390fd5b8060068190555050565b6000611dac826001600086815260200190815260200160002060000161238290919063ffffffff16565b905092915050565b7fe2b7fb3b832174769106daebcfd6d1970523240dda11281102db9363b83b0dc481565b60055481565b611de6612666565b611e107fe2b7fb3b832174769106daebcfd6d1970523240dda11281102db9363b83b0dc482611d82565b611e4f576040517f08c379a0000000000000000000000000000000000000000000000000000000008152600401611e4690613ee2565b60405180910390fd5b611e797fe2b7fb3b832174769106daebcfd6d1970523240dda11281102db9363b83b0dc4826122c6565b8073ffffffffffffffffffffffffffffffffffffffff167f10e1f7ce9fd7d1b90a66d13a2ab3cb8dd7f29f3f8d520b143b063ccfbab6906b60405160405180910390a26004600081548092919060019003919050555050565b6000801b81565b611ee1612b76565b60008460ff1660088567ffffffffffffffff1668ffffffffffffffffff16901b179050600b60008268ffffffffffffffffff1668ffffffffffffffffff16815260200190815260200160002060008481526020019081526020016000206040518060c0016040529081600082015481526020016001820154815260200160028201805480602002602001604051908101604052809291908181526020018280548015611fe257602002820191906000526020600020905b8160009054906101000a900473ffffffffffffffffffffffffffffffffffffffff1673ffffffffffffffffffffffffffffffffffffffff1681526020019060010190808311611f98575b505050505081526020016003820180548060200260200160405190810160405280929190818152602001828054801561207057602002820191906000526020600020905b8160009054906101000a900473ffffffffffffffffffffffffffffffffffffffff1673ffffffffffffffffffffffffffffffffffffffff1681526020019060010190808311612026575b505050505081526020016004820160009054906101000a900460ff16600481111561209757fe5b60048111156120a257fe5b81526020016005820154815250509150509392505050565b600260009054906101000a900460ff1681565b60065481565b60075481565b60006120f960016000848152602001908152602001600020600001612729565b9050919050565b612108612666565b826009600084815260200190815260200160002060006101000a81548173ffffffffffffffffffffffffffffffffffffffff021916908373ffffffffffffffffffffffffffffffffffffffff16021790555060008390508073ffffffffffffffffffffffffffffffffffffffff1663b8fa373684846040518363ffffffff1660e01b815260040161219a929190613c99565b600060405180830381600087803b1580156121b457600080fd5b505af11580156121c8573d6000803e3d6000fd5b5050505050505050565b6121da612666565b6122047fe2b7fb3b832174769106daebcfd6d1970523240dda11281102db9363b83b0dc482611d82565b15612244576040517f08c379a000000000000000000000000000000000000000000000000000000000815260040161223b90613fe2565b60405180910390fd5b61226e7fe2b7fb3b832174769106daebcfd6d1970523240dda11281102db9363b83b0dc4826114d9565b8073ffffffffffffffffffffffffffffffffffffffff167f03580ee9f53a62b7cb409a2cb56f9be87747dd15017afc5cef6eef321e4fb2c560405160405180910390a260046000815480929190600101919050555050565b6122ed60016000848152602001908152602001600020600201546122e8612536565b611d82565b61232c576040517f08c379a000000000000000000000000000000000000000000000000000000000815260040161232390613f82565b60405180910390fd5b61233682826125d2565b5050565b60035481565b612348612666565b61235061273e565b565b600061237a836000018373ffffffffffffffffffffffffffffffffffffffff1660001b612799565b905092915050565b60006123aa836000018373ffffffffffffffffffffffffffffffffffffffff1660001b612809565b905092915050565b60008054906101000a900460ff1615612400576040517f08c379a00000000000000000000000000000000000000000000000000000000081526004016123f790613fc2565b60405180910390fd5b565b61240f6000801b33611d82565b80612440575061243f7fe2b7fb3b832174769106daebcfd6d1970523240dda11281102db9363b83b0dc433611d82565b5b61247f576040517f08c379a000000000000000000000000000000000000000000000000000000000815260040161247690613e42565b60405180910390fd5b565b60006124c383836040518060400160405280601e81526020017f536166654d6174683a207375627472616374696f6e206f766572666c6f77000081525061282c565b905092915050565b6124f57fe2b7fb3b832174769106daebcfd6d1970523240dda11281102db9363b83b0dc433611d82565b612534576040517f08c379a000000000000000000000000000000000000000000000000000000000815260040161252b90614022565b60405180910390fd5b565b600033905090565b612566816001600085815260200190815260200160002060000161235290919063ffffffff16565b156125ce57612573612536565b73ffffffffffffffffffffffffffffffffffffffff168173ffffffffffffffffffffffffffffffffffffffff16837f2f8788117e7eff1d82e926ec794901d17c78024a50270940304540a733656f0d60405160405180910390a45b5050565b6125fa816001600085815260200190815260200160002060000161288790919063ffffffff16565b1561266257612607612536565b73ffffffffffffffffffffffffffffffffffffffff168173ffffffffffffffffffffffffffffffffffffffff16837ff6391f5c32d9c69d2a47ea670b442974b53935d1edc7fd64eb21e047a839171b60405160405180910390a45b5050565b6126736000801b33611d82565b6126b2576040517f08c379a00000000000000000000000000000000000000000000000000000000081526004016126a990614042565b60405180910390fd5b565b6126bc6123b2565b60016000806101000a81548160ff0219169083151502179055507f62e78cea01bee320cd4e420270b5ea74000d11b0c9f74754ebdbfc544b05a258336040516127059190613c11565b60405180910390a1565b600061271e83600001836128b7565b60001c905092915050565b600061273782600001612924565b9050919050565b612746612935565b60008060006101000a81548160ff0219169083151502179055507f5db9ee0a495bf2e6ff9c91a7834c1ba4fdd244a5e8aa4e537bd38aeae4b073aa3360405161278f9190613c11565b60405180910390a1565b60006127a58383612809565b6127fe578260000182908060018154018082558091505060019003906000526020600020016000909190919091505582600001805490508360010160008481526020019081526020016000208190555060019050612803565b600090505b92915050565b600080836001016000848152602001908152602001600020541415905092915050565b6000838311158290612874576040517f08c379a000000000000000000000000000000000000000000000000000000000815260040161286b9190613de0565b60405180910390fd5b5060008385039050809150509392505050565b60006128af836000018373ffffffffffffffffffffffffffffffffffffffff1660001b612984565b905092915050565b600081836000018054905011612902576040517f08c379a00000000000000000000000000000000000000000000000000000000081526004016128f990613e22565b60405180910390fd5b82600001828154811061291157fe5b9060005260206000200154905092915050565b600081600001805490509050919050565b60008054906101000a900460ff16612982576040517f08c379a000000000000000000000000000000000000000000000000000000000815260040161297990613ec2565b60405180910390fd5b565b60008083600101600084815260200190815260200160002054905060008114612a6057600060018203905060006001866000018054905003905060008660000182815481106129cf57fe5b90600052602060002001549050808760000184815481106129ec57fe5b9060005260206000200181905550600183018760010160008381526020019081526020016000208190555086600001805480612a2457fe5b60019003818190600052602060002001600090559055866001016000878152602001908152602001600020600090556001945050505050612a66565b60009150505b92915050565b828054600181600116156101000203166002900490600052602060002090601f016020900481019282601f10612aad57803560ff1916838001178555612adb565b82800160010185558215612adb579182015b82811115612ada578235825591602001919060010190612abf565b5b509050612ae89190612bbd565b5090565b828054828255906000526020600020908101928215612b65579160200282015b82811115612b645782518260006101000a81548173ffffffffffffffffffffffffffffffffffffffff021916908373ffffffffffffffffffffffffffffffffffffffff16021790555091602001919060010190612b0c565b5b509050612b729190612bda565b5090565b6040518060c001604052806000801916815260200160008019168152602001606081526020016060815260200160006004811115612bb057fe5b8152602001600081525090565b5b80821115612bd6576000816000905550600101612bbe565b5090565b5b80821115612c1157600081816101000a81549073ffffffffffffffffffffffffffffffffffffffff021916905550600101612bdb565b5090565b600081359050612c2481614357565b92915050565b600081359050612c398161436e565b92915050565b60008083601f840112612c5157600080fd5b8235905067ffffffffffffffff811115612c6a57600080fd5b602083019150836020820283011115612c8257600080fd5b9250929050565b60008083601f840112612c9b57600080fd5b8235905067ffffffffffffffff811115612cb457600080fd5b602083019150836020820283011115612ccc57600080fd5b9250929050565b600081359050612ce281614385565b92915050565b60008083601f840112612cfa57600080fd5b8235905067ffffffffffffffff811115612d1357600080fd5b602083019150836001820283011115612d2b57600080fd5b9250929050565b600081359050612d418161439c565b92915050565b600081359050612d56816143b3565b92915050565b600081359050612d6b816143ca565b92915050565b600081359050612d80816143e1565b92915050565b600060208284031215612d9857600080fd5b6000612da684828501612c15565b91505092915050565b600060208284031215612dc157600080fd5b6000612dcf84828501612c2a565b91505092915050565b60008060408385031215612deb57600080fd5b6000612df985828601612c15565b9250506020612e0a85828601612c15565b9150509250929050565b60008060008060808587031215612e2a57600080fd5b6000612e3887828801612c15565b9450506020612e4987828801612c15565b9350506040612e5a87828801612c15565b9250506060612e6b87828801612d32565b91505092959194509250565b600080600060608486031215612e8c57600080fd5b6000612e9a86828701612c15565b9350506020612eab86828701612cd3565b9250506040612ebc86828701612c15565b9150509250925092565b60008060008060408587031215612edc57600080fd5b600085013567ffffffffffffffff811115612ef657600080fd5b612f0287828801612c3f565b9450945050602085013567ffffffffffffffff811115612f2157600080fd5b612f2d87828801612c89565b925092505092959194509250565b600060208284031215612f4d57600080fd5b6000612f5b84828501612cd3565b91505092915050565b60008060408385031215612f7757600080fd5b6000612f8585828601612cd3565b9250506020612f9685828601612c15565b9150509250929050565b60008060408385031215612fb357600080fd5b6000612fc185828601612cd3565b9250506020612fd285828601612d32565b9150509250929050565b600060208284031215612fee57600080fd5b6000612ffc84828501612d32565b91505092915050565b6000806040838503121561301857600080fd5b600061302685828601612d47565b925050602061303785828601612d71565b9150509250929050565b6000806040838503121561305457600080fd5b600061306285828601612d5c565b925050602061307385828601612cd3565b9150509250929050565b60008060006060848603121561309257600080fd5b60006130a086828701612d5c565b93505060206130b186828701612cd3565b92505060406130c286828701612c15565b9150509250925092565b6000602082840312156130de57600080fd5b60006130ec84828501612d71565b91505092915050565b6000806000806060858703121561310b57600080fd5b600061311987828801612d71565b945050602061312a87828801612cd3565b935050604085013567ffffffffffffffff81111561314757600080fd5b61315387828801612ce8565b925092505092959194509250565b60008060006060848603121561317657600080fd5b600061318486828701612d71565b935050602061319586828701612d47565b92505060406131a686828701612cd3565b9150509250925092565b600080600080608085870312156131c657600080fd5b60006131d487828801612d71565b94505060206131e587828801612d47565b93505060406131f687828801612cd3565b925050606061320787828801612cd3565b91505092959194509250565b60008060008060006080868803121561322b57600080fd5b600061323988828901612d71565b955050602061324a88828901612d47565b945050604086013567ffffffffffffffff81111561326757600080fd5b61327388828901612ce8565b9350935050606061328688828901612cd3565b9150509295509295909350565b600061329f83836132ba565b60208301905092915050565b6132b48161427e565b82525050565b6132c3816141d1565b82525050565b6132d2816141d1565b82525050565b6132e96132e4826141d1565b614308565b82525050565b60006132fa82614165565b6133048185614193565b935061330f83614155565b8060005b838110156133405781516133278882613293565b975061333283614186565b925050600181019050613313565b5085935050505092915050565b613356816141f5565b82525050565b61336581614201565b82525050565b61337481614201565b82525050565b600061338683856141a4565b93506133938385846142c6565b61339c8361432c565b840190509392505050565b60006133b383856141b5565b93506133c08385846142c6565b82840190509392505050565b60006133d782614170565b6133e181856141a4565b93506133f18185602086016142d5565b6133fa8161432c565b840191505092915050565b61340e81614290565b82525050565b61341d81614290565b82525050565b600061342e8261417b565b61343881856141c0565b93506134488185602086016142d5565b6134518161432c565b840191505092915050565b6000613469601c836141c0565b91507f70726f706f73616c20616c7265616479207472616e73666572726564000000006000830152602082019050919050565b60006134a96022836141c0565b91507f456e756d657261626c655365743a20696e646578206f7574206f6620626f756e60008301527f64730000000000000000000000000000000000000000000000000000000000006020830152604082019050919050565b600061350f601e836141c0565b91507f73656e646572206973206e6f742072656c61796572206f722061646d696e00006000830152602082019050919050565b600061354f6026836141c0565b91507f6c656e677468206f66206164647265737320616e6420616d6f756e747320646960008301527f736d6174636800000000000000000000000000000000000000000000000000006020830152604082019050919050565b60006135b5602f836141c0565b91507f416363657373436f6e74726f6c3a2073656e646572206d75737420626520616e60008301527f2061646d696e20746f206772616e7400000000000000000000000000000000006020830152604082019050919050565b600061361b6015836141c0565b91507f72656c6179657220616c726561647920766f74656400000000000000000000006000830152602082019050919050565b600061365b6014836141c0565b91507f5061757361626c653a206e6f74207061757365640000000000000000000000006000830152602082019050919050565b600061369b601f836141c0565b91507f6164647220646f65736e277420686176652072656c6179657220726f6c6521006000830152602082019050919050565b60006136db6016836141c0565b91507f496e636f72726563742066656520737570706c696564000000000000000000006000830152602082019050919050565b600061371b601b836141c0565b91507f6461746120646f65736e2774206d6174636820646174616861736800000000006000830152602082019050919050565b600061375b601a836141c0565b91507f50726f706f73616c20616c72656164792063616e63656c6c65640000000000006000830152602082019050919050565b600061379b6020836141c0565b91507f7265736f757263654944206e6f74206d617070656420746f2068616e646c65726000830152602082019050919050565b60006137db6030836141c0565b91507f416363657373436f6e74726f6c3a2073656e646572206d75737420626520616e60008301527f2061646d696e20746f207265766f6b65000000000000000000000000000000006020830152604082019050919050565b60006138416020836141c0565b91507f50726f706f73616c206e6f7420617420657870697279207468726573686f6c646000830152602082019050919050565b60006138816010836141c0565b91507f5061757361626c653a20706175736564000000000000000000000000000000006000830152602082019050919050565b60006138c1601e836141c0565b91507f6164647220616c7265616479206861732072656c6179657220726f6c652100006000830152602082019050919050565b6000613901602a836141c0565b91507f70726f706f73616c20616c7265616479207061737365642f657865637574656460008301527f2f63616e63656c6c6564000000000000000000000000000000000000000000006020830152604082019050919050565b60006139676020836141c0565b91507f73656e64657220646f65736e277420686176652072656c6179657220726f6c656000830152602082019050919050565b60006139a7601e836141c0565b91507f73656e64657220646f65736e277420686176652061646d696e20726f6c6500006000830152602082019050919050565b60006139e7601f836141c0565b91507f43757272656e742066656520697320657175616c20746f206e657720666565006000830152602082019050919050565b6000613a276011836141c0565b91507f6461746168617368206d69736d617463680000000000000000000000000000006000830152602082019050919050565b6000613a676019836141c0565b91507f6e6f2068616e646c657220666f72207265736f757263654944000000000000006000830152602082019050919050565b6000613aa7602f836141c0565b91507f416363657373436f6e74726f6c3a2063616e206f6e6c792072656e6f756e636560008301527f20726f6c657320666f722073656c6600000000000000000000000000000000006020830152604082019050919050565b600060c083016000830151613b18600086018261335c565b506020830151613b2b602086018261335c565b5060408301518482036040860152613b4382826132ef565b91505060608301518482036060860152613b5d82826132ef565b9150506080830151613b726080860182613405565b5060a0830151613b8560a0860182613b90565b508091505092915050565b613b998161423e565b82525050565b613ba88161423e565b82525050565b613bb781614248565b82525050565b613bc681614271565b82525050565b6000613bd882866132d8565b601482019150613be98284866133a7565b9150819050949350505050565b6000602082019050613c0b60008301846132c9565b92915050565b6000602082019050613c2660008301846132ab565b92915050565b6000606082019050613c4160008301866132c9565b613c4e60208301856132c9565b613c5b6040830184613b9f565b949350505050565b6000602082019050613c78600083018461334d565b92915050565b6000602082019050613c93600083018461336b565b92915050565b6000604082019050613cae600083018561336b565b613cbb60208301846132c9565b9392505050565b6000604082019050613cd7600083018561336b565b613ce4602083018461336b565b9392505050565b6000608082019050613d00600083018761336b565b613d0d602083018661336b565b613d1a6040830185613414565b613d276060830184613b9f565b95945050505050565b6000604082019050613d45600083018661336b565b8181036020830152613d5881848661337a565b9050949350505050565b600060a082019050613d77600083018961336b565b613d846020830188613bbd565b613d916040830187613bae565b613d9e60608301866132ab565b8181036080830152613db181848661337a565b9050979650505050505050565b60006020820190508181036000830152613dd881846133cc565b905092915050565b60006020820190508181036000830152613dfa8184613423565b905092915050565b60006020820190508181036000830152613e1b8161345c565b9050919050565b60006020820190508181036000830152613e3b8161349c565b9050919050565b60006020820190508181036000830152613e5b81613502565b9050919050565b60006020820190508181036000830152613e7b81613542565b9050919050565b60006020820190508181036000830152613e9b816135a8565b9050919050565b60006020820190508181036000830152613ebb8161360e565b9050919050565b60006020820190508181036000830152613edb8161364e565b9050919050565b60006020820190508181036000830152613efb8161368e565b9050919050565b60006020820190508181036000830152613f1b816136ce565b9050919050565b60006020820190508181036000830152613f3b8161370e565b9050919050565b60006020820190508181036000830152613f5b8161374e565b9050919050565b60006020820190508181036000830152613f7b8161378e565b9050919050565b60006020820190508181036000830152613f9b816137ce565b9050919050565b60006020820190508181036000830152613fbb81613834565b9050919050565b60006020820190508181036000830152613fdb81613874565b9050919050565b60006020820190508181036000830152613ffb816138b4565b9050919050565b6000602082019050818103600083015261401b816138f4565b9050919050565b6000602082019050818103600083015261403b8161395a565b9050919050565b6000602082019050818103600083015261405b8161399a565b9050919050565b6000602082019050818103600083015261407b816139da565b9050919050565b6000602082019050818103600083015261409b81613a1a565b9050919050565b600060208201905081810360008301526140bb81613a5a565b9050919050565b600060208201905081810360008301526140db81613a9a565b9050919050565b600060208201905081810360008301526140fc8184613b00565b905092915050565b60006020820190506141196000830184613b9f565b92915050565b60006020820190506141346000830184613bae565b92915050565b600060208201905061414f6000830184613bbd565b92915050565b6000819050602082019050919050565b600081519050919050565b600081519050919050565b600081519050919050565b6000602082019050919050565b600082825260208201905092915050565b600082825260208201905092915050565b600081905092915050565b600082825260208201905092915050565b60006141dc8261421e565b9050919050565b60006141ee8261421e565b9050919050565b60008115159050919050565b6000819050919050565b60008190506142198261434a565b919050565b600073ffffffffffffffffffffffffffffffffffffffff82169050919050565b6000819050919050565b600067ffffffffffffffff82169050919050565b600068ffffffffffffffffff82169050919050565b600060ff82169050919050565b6000614289826142a2565b9050919050565b600061429b8261420b565b9050919050565b60006142ad826142b4565b9050919050565b60006142bf8261421e565b9050919050565b82818337600083830152505050565b60005b838110156142f35780820151818401526020810190506142d8565b83811115614302576000848401525b50505050565b60006143138261431a565b9050919050565b60006143258261433d565b9050919050565b6000601f19601f8301169050919050565b60008160601b9050919050565b6005811061435457fe5b50565b614360816141d1565b811461436b57600080fd5b50565b614377816141e3565b811461438257600080fd5b50565b61438e81614201565b811461439957600080fd5b50565b6143a58161423e565b81146143b057600080fd5b50565b6143bc81614248565b81146143c757600080fd5b50565b6143d38161425c565b81146143de57600080fd5b50565b6143ea81614271565b81146143f557600080fd5b5056fea2646970667358221220b8c67b9fa7eec5f4112457e3555fb271ebcb9d0e0414a5a65424be413cc2a78c64736f6c63430007000033",
  "immutableReferences": {},
  "source": "// SPDX-License-Identifier: MIT\n\npragma solidity >=0.6.0 <0.8.0;\npragma experimental ABIEncoderV2;\n\nimport \"@openzeppelin/contracts/access/AccessControl.sol\";\nimport \"./utils/Pausable.sol\";\nimport \"./utils/SafeMath.sol\";\nimport \"./interfaces/IDepositExecute.sol\";\nimport \"./interfaces/IBridge.sol\";\nimport \"./interfaces/IERCHandler.sol\";\n\n/**\n    @title Facilitates deposits, creation and votiing of deposit proposals, and deposit executions.\n    @author ChainSafe Systems.\n */\ncontract Bridge is CustomPausable, AccessControl, CustomSafeMath {\n\n    uint8   public _chainID;\n    uint256 public _relayerThreshold;\n    uint256 public _totalRelayers;\n    uint256 public _totalProposals;\n    uint256 public _fee;\n    uint256 public _expiry;\n\n    enum Vote {No, Yes}\n\n    enum ProposalStatus {Inactive, Active, Passed, Executed, Cancelled}\n\n    struct Proposal {\n        bytes32 _resourceID;\n        bytes32 _dataHash;\n        address[] _yesVotes;\n        address[] _noVotes;\n        ProposalStatus _status;\n        uint256 _proposedBlock;\n    }\n\n    // destinationChainID => number of deposits\n    mapping(uint8 => uint64) public _depositCounts;\n    // resourceID => handler address\n    mapping(bytes32 => address) public _resourceIDToHandlerAddress;\n    // depositNonce => destinationChainID => bytes\n    mapping(uint64 => mapping(uint8 => bytes)) public _depositRecords;\n    // destinationChainID + depositNonce => dataHash => Proposal\n    mapping(uint72 => mapping(bytes32 => Proposal)) public _proposals;\n    // destinationChainID + depositNonce => dataHash => relayerAddress => bool\n    mapping(uint72 => mapping(bytes32 => mapping(address => bool))) public _hasVotedOnProposal;\n\n    event RelayerThresholdChanged(uint indexed newThreshold);\n    event RelayerAdded(address indexed relayer);\n    event RelayerRemoved(address indexed relayer);\n    event Deposit(\n        uint8   indexed destinationChainID,\n        bytes32 indexed resourceID,\n        uint64  indexed depositNonce\n    );\n    event ProposalEvent(\n        uint8           indexed originChainID,\n        uint64          indexed depositNonce,\n        ProposalStatus  indexed status,\n        bytes32 resourceID,\n        bytes32 dataHash\n    );\n\n    event ProposalVote(\n        uint8   indexed originChainID,\n        uint64  indexed depositNonce,\n        ProposalStatus indexed status,\n        bytes32 resourceID\n    );\n\n    bytes32 public constant RELAYER_ROLE = keccak256(\"RELAYER_ROLE\");\n\n    modifier onlyAdmin() {\n        _onlyAdmin();\n        _;\n    }\n\n    modifier onlyAdminOrRelayer() {\n        _onlyAdminOrRelayer();\n        _;\n    }\n\n    modifier onlyRelayers() {\n        _onlyRelayers();\n        _;\n    }\n\n    function _onlyAdminOrRelayer() private {\n        require(hasRole(DEFAULT_ADMIN_ROLE, msg.sender) || hasRole(RELAYER_ROLE, msg.sender),\n            \"sender is not relayer or admin\");\n    }\n\n    function _onlyAdmin() private {\n        require(hasRole(DEFAULT_ADMIN_ROLE, msg.sender), \"sender doesn't have admin role\");\n    }\n\n    function _onlyRelayers() private {\n        require(hasRole(RELAYER_ROLE, msg.sender), \"sender doesn't have relayer role\");\n    }\n\n    /**\n        @notice Initializes Bridge, creates and grants {msg.sender} the admin role,\n        creates and grants {initialRelayers} the relayer role.\n        @param chainID ID of chain the Bridge contract exists on.\n        @param initialRelayers Addresses that should be initially granted the relayer role.\n        @param initialRelayerThreshold Number of votes needed for a deposit proposal to be considered passed.\n     */\n    constructor (uint8 chainID, address[] memory initialRelayers, uint initialRelayerThreshold, uint256 fee, uint256 expiry) public {\n        _chainID = chainID;\n        _relayerThreshold = initialRelayerThreshold;\n        _fee = fee;\n        _expiry = expiry;\n\n        _setupRole(DEFAULT_ADMIN_ROLE, msg.sender);\n        _setRoleAdmin(RELAYER_ROLE, DEFAULT_ADMIN_ROLE);\n\n        uint initialRelayerCount = initialRelayers.length;\n        for (uint i; i < initialRelayerCount; i++) {\n            grantRole(RELAYER_ROLE, initialRelayers[i]);\n            _totalRelayers++;\n        }\n\n    }\n\n    /**\n        @notice Returns true if {relayer} has the relayer role.\n        @param relayer Address to check.\n     */\n    function isRelayer(address relayer) external view returns (bool) {\n        return hasRole(RELAYER_ROLE, relayer);\n    }\n\n    /**\n        @notice Removes admin role from {msg.sender} and grants it to {newAdmin}.\n        @notice Only callable by an address that currently has the admin role.\n        @param newAdmin Address that admin role will be granted to.\n     */\n    function renounceAdmin(address newAdmin) external onlyAdmin {\n        grantRole(DEFAULT_ADMIN_ROLE, newAdmin);\n        renounceRole(DEFAULT_ADMIN_ROLE, msg.sender);\n    }\n\n    /**\n        @notice Pauses deposits, proposal creation and voting, and deposit executions.\n        @notice Only callable by an address that currently has the admin role.\n     */\n    function adminPauseTransfers() external onlyAdmin {\n        _pause();\n    }\n\n    /**\n        @notice Unpauses deposits, proposal creation and voting, and deposit executions.\n        @notice Only callable by an address that currently has the admin role.\n     */\n    function adminUnpauseTransfers() external onlyAdmin {\n        _unpause();\n    }\n\n    /**\n        @notice Modifies the number of votes required for a proposal to be considered passed.\n        @notice Only callable by an address that currently has the admin role.\n        @param newThreshold Value {_relayerThreshold} will be changed to.\n        @notice Emits {RelayerThresholdChanged} event.\n     */\n    function adminChangeRelayerThreshold(uint newThreshold) external onlyAdmin {\n        _relayerThreshold = newThreshold;\n        emit RelayerThresholdChanged(newThreshold);\n    }\n\n    /**\n        @notice Grants {relayerAddress} the relayer role and increases {_totalRelayer} count.\n        @notice Only callable by an address that currently has the admin role.\n        @param relayerAddress Address of relayer to be added.\n        @notice Emits {RelayerAdded} event.\n     */\n    function adminAddRelayer(address relayerAddress) external onlyAdmin {\n        require(!hasRole(RELAYER_ROLE, relayerAddress), \"addr already has relayer role!\");\n        grantRole(RELAYER_ROLE, relayerAddress);\n        emit RelayerAdded(relayerAddress);\n        _totalRelayers++;\n    }\n\n    /**\n        @notice Removes relayer role for {relayerAddress} and decreases {_totalRelayer} count.\n        @notice Only callable by an address that currently has the admin role.\n        @param relayerAddress Address of relayer to be removed.\n        @notice Emits {RelayerRemoved} event.\n     */\n    function adminRemoveRelayer(address relayerAddress) external onlyAdmin {\n        require(hasRole(RELAYER_ROLE, relayerAddress), \"addr doesn't have relayer role!\");\n        revokeRole(RELAYER_ROLE, relayerAddress);\n        emit RelayerRemoved(relayerAddress);\n        _totalRelayers--;\n    }\n\n    /**\n        @notice Sets a new resource for handler contracts that use the IERCHandler interface,\n        and maps the {handlerAddress} to {resourceID} in {_resourceIDToHandlerAddress}.\n        @notice Only callable by an address that currently has the admin role.\n        @param handlerAddress Address of handler resource will be set for.\n        @param resourceID ResourceID to be used when making deposits.\n        @param tokenAddress Address of contract to be called when a deposit is made and a deposited is executed.\n     */\n    function adminSetResource(address handlerAddress, bytes32 resourceID, address tokenAddress) external onlyAdmin {\n        _resourceIDToHandlerAddress[resourceID] = handlerAddress;\n        IERCHandler handler = IERCHandler(handlerAddress);\n        handler.setResource(resourceID, tokenAddress);\n    }\n\n    /**\n        @notice Sets a resource as burnable for handler contracts that use the IERCHandler interface.\n        @notice Only callable by an address that currently has the admin role.\n        @param handlerAddress Address of handler resource will be set for.\n        @param tokenAddress Address of contract to be called when a deposit is made and a deposited is executed.\n     */\n    function adminSetBurnable(address handlerAddress, address tokenAddress) external onlyAdmin {\n        IERCHandler handler = IERCHandler(handlerAddress);\n        handler.setBurnable(tokenAddress);\n    }\n\n    /**\n        @notice Returns a proposal.\n        @param originChainID Chain ID deposit originated from.\n        @param depositNonce ID of proposal generated by proposal's origin Bridge contract.\n        @param dataHash Hash of data to be provided when deposit proposal is executed.\n        @return Proposal which consists of:\n        - _dataHash Hash of data to be provided when deposit proposal is executed.\n        - _yesVotes Number of votes in favor of proposal.\n        - _noVotes Number of votes against proposal.\n        - _status Current status of proposal.\n     */\n    function getProposal(uint8 originChainID, uint64 depositNonce, bytes32 dataHash) external view returns (Proposal memory) {\n        uint72 nonceAndID = (uint72(depositNonce) << 8) | uint72(originChainID);\n        return _proposals[nonceAndID][dataHash];\n    }\n\n    /**\n        @notice Changes deposit fee.\n        @notice Only callable by admin.\n        @param newFee Value {_fee} will be updated to.\n     */\n    function adminChangeFee(uint newFee) external onlyAdmin {\n        require(_fee != newFee, \"Current fee is equal to new fee\");\n        _fee = newFee;\n    }\n\n    /**\n        @notice Used to manually withdraw funds from ERC safes.\n        @param handlerAddress Address of handler to withdraw from.\n        @param tokenAddress Address of token to withdraw.\n        @param recipient Address to withdraw tokens to.\n        @param amount Either the amount of ERC20 tokens to release.\n     */\n    function adminWithdraw(\n        address handlerAddress,\n        address tokenAddress,\n        address recipient,\n        uint256 amount\n    ) external onlyAdmin {\n        IERCHandler handler = IERCHandler(handlerAddress);\n        handler.withdraw(tokenAddress, recipient, amount);\n    }\n\n    /**\n        @notice Initiates a transfer using a specified handler contract.\n        @notice Only callable when Bridge is not paused.\n        @param destinationChainID ID of chain deposit will be bridged to.\n        @param resourceID ResourceID used to find address of handler to be used for deposit.\n        @param data Additional data to be passed to specified handler.\n        @notice Emits {Deposit} event.\n     */\n    function deposit(uint8 destinationChainID, bytes32 resourceID, bytes calldata data) external payable whenNotPaused {\n        require(msg.value == _fee, \"Incorrect fee supplied\");\n\n        address handler = _resourceIDToHandlerAddress[resourceID];\n        require(handler != address(0), \"resourceID not mapped to handler\");\n\n        uint64 depositNonce = ++_depositCounts[destinationChainID];\n        _depositRecords[depositNonce][destinationChainID] = data;\n\n        IDepositExecute depositHandler = IDepositExecute(handler);\n        depositHandler.deposit(resourceID, destinationChainID, depositNonce, msg.sender, data);\n\n        emit Deposit(destinationChainID, resourceID, depositNonce);\n    }\n\n    /**\n        @notice When called, {msg.sender} will be marked as voting in favor of proposal.\n        @notice Only callable by relayers when Bridge is not paused.\n        @param chainID ID of chain deposit originated from.\n        @param depositNonce ID of deposited generated by origin Bridge contract.\n        @param dataHash Hash of data provided when deposit was made.\n        @notice Proposal must not have already been passed or executed.\n        @notice {msg.sender} must not have already voted on proposal.\n        @notice Emits {ProposalEvent} event with status indicating the proposal status.\n        @notice Emits {ProposalVote} event.\n     */\n    function voteProposal(uint8 chainID, uint64 depositNonce, bytes32 resourceID, bytes32 dataHash) external onlyRelayers whenNotPaused {\n\n        uint72 nonceAndID = (uint72(depositNonce) << 8) | uint72(chainID);\n        Proposal storage proposal = _proposals[nonceAndID][dataHash];\n\n        require(_resourceIDToHandlerAddress[resourceID] != address(0), \"no handler for resourceID\");\n        require(uint(proposal._status) <= 1, \"proposal already passed/executed/cancelled\");\n        require(!_hasVotedOnProposal[nonceAndID][dataHash][msg.sender], \"relayer already voted\");\n\n        if (uint(proposal._status) == 0) {\n            ++_totalProposals;\n            _proposals[nonceAndID][dataHash] = Proposal({\n                _resourceID : resourceID,\n                _dataHash : dataHash,\n                _yesVotes : new address[](1),\n                _noVotes : new address[](0),\n                _status : ProposalStatus.Active,\n                _proposedBlock : block.number\n                });\n\n            proposal._yesVotes[0] = msg.sender;\n            emit ProposalEvent(chainID, depositNonce, ProposalStatus.Active, resourceID, dataHash);\n        } else {\n            if (sub(block.number, proposal._proposedBlock) > _expiry) {\n                // if the number of blocks that has passed since this proposal was\n                // submitted exceeds the expiry threshold set, cancel the proposal\n                proposal._status = ProposalStatus.Cancelled;\n                emit ProposalEvent(chainID, depositNonce, ProposalStatus.Cancelled, resourceID, dataHash);\n            } else {\n                require(dataHash == proposal._dataHash, \"datahash mismatch\");\n                proposal._yesVotes.push(msg.sender);\n\n\n            }\n\n        }\n        if (proposal._status != ProposalStatus.Cancelled) {\n            _hasVotedOnProposal[nonceAndID][dataHash][msg.sender] = true;\n            emit ProposalVote(chainID, depositNonce, proposal._status, resourceID);\n\n            // If _depositThreshold is set to 1, then auto finalize\n            // or if _relayerThreshold has been exceeded\n            if (_relayerThreshold <= 1 || proposal._yesVotes.length >= _relayerThreshold) {\n                proposal._status = ProposalStatus.Passed;\n\n                emit ProposalEvent(chainID, depositNonce, ProposalStatus.Passed, resourceID, dataHash);\n            }\n        }\n\n    }\n\n    /**\n        @notice Executes a deposit proposal that is considered passed using a specified handler contract.\n        @notice Only callable by relayers when Bridge is not paused.\n        @param chainID ID of chain deposit originated from.\n        @param depositNonce ID of deposited generated by origin Bridge contract.\n        @param dataHash Hash of data originally provided when deposit was made.\n        @notice Proposal must be past expiry threshold.\n        @notice Emits {ProposalEvent} event with status {Cancelled}.\n     */\n    function cancelProposal(uint8 chainID, uint64 depositNonce, bytes32 dataHash) public onlyAdminOrRelayer {\n        uint72 nonceAndID = (uint72(depositNonce) << 8) | uint72(chainID);\n        Proposal storage proposal = _proposals[nonceAndID][dataHash];\n\n        require(proposal._status != ProposalStatus.Cancelled, \"Proposal already cancelled\");\n        require(sub(block.number, proposal._proposedBlock) > _expiry, \"Proposal not at expiry threshold\");\n\n        proposal._status = ProposalStatus.Cancelled;\n        emit ProposalEvent(chainID, depositNonce, ProposalStatus.Cancelled, proposal._resourceID, proposal._dataHash);\n\n    }\n\n    /**\n        @notice Executes a deposit proposal that is considered passed using a specified handler contract.\n        @notice Only callable by relayers when Bridge is not paused.\n        @param chainID ID of chain deposit originated from.\n        @param resourceID ResourceID to be used when making deposits.\n        @param depositNonce ID of deposited generated by origin Bridge contract.\n        @param data Data originally provided when deposit was made.\n        @notice Proposal must have Passed status.\n        @notice Hash of {data} must equal proposal's {dataHash}.\n        @notice Emits {ProposalEvent} event with status {Executed}.\n     */\n    function executeProposal(uint8 chainID, uint64 depositNonce, bytes calldata data, bytes32 resourceID) external onlyRelayers whenNotPaused {\n        address handler = _resourceIDToHandlerAddress[resourceID];\n        uint72 nonceAndID = (uint72(depositNonce) << 8) | uint72(chainID);\n        bytes32 dataHash = keccak256(abi.encodePacked(handler, data));\n        Proposal storage proposal = _proposals[nonceAndID][dataHash];\n\n        require(proposal._status == ProposalStatus.Passed, \"proposal already transferred\");\n        require(dataHash == proposal._dataHash, \"data doesn't match datahash\");\n\n        proposal._status = ProposalStatus.Executed;\n\n        IDepositExecute depositHandler = IDepositExecute(_resourceIDToHandlerAddress[proposal._resourceID]);\n        depositHandler.executeProposal(proposal._resourceID, data);\n\n        emit ProposalEvent(chainID, depositNonce, proposal._status, proposal._resourceID, proposal._dataHash);\n    }\n\n    /**\n        @notice Transfers eth in the contract to the specified addresses. The parameters addrs and amounts are mapped 1-1.\n        This means that the address at index 0 for addrs will receive the amount (in WEI) from amounts at index 0.\n        @param addrs Array of addresses to transfer {amounts} to.\n        @param amounts Array of amonuts to transfer to {addrs}.\n     */\n    function transferFunds(address payable[] calldata addrs, uint[] calldata amounts) external onlyAdmin {\n        require(addrs.length == amounts.length, \"length of address and amounts dismatch\");\n        uint addrCount = addrs.length;\n        for (uint i = 0; i < addrCount; i++) {\n            addrs[i].transfer(amounts[i]);\n        }\n    }\n\n}\n",
  "sourcePath": "/home/nath/project/bridge/bridge-cli/solidity-contract/contracts/Bridge.sol",
  "compiler": {
    "name": "solc",
    "version": "0.7.0+commit.9e61f92b.Emscripten.clang"
  },
  "schemaVersion": "3.4.4",
  "updatedAt": "2022-03-09T08:01:38.521Z",
  "devdoc": {
    "author": "ChainSafe Systems.",
    "kind": "dev",
    "methods": {
      "adminAddRelayer(address)": {
        "params": {
          "relayerAddress": "Address of relayer to be added."
        }
      },
      "adminChangeFee(uint256)": {
        "params": {
          "newFee": "Value {_fee} will be updated to."
        }
      },
      "adminChangeRelayerThreshold(uint256)": {
        "params": {
          "newThreshold": "Value {_relayerThreshold} will be changed to."
        }
      },
      "adminRemoveRelayer(address)": {
        "params": {
          "relayerAddress": "Address of relayer to be removed."
        }
      },
      "adminSetBurnable(address,address)": {
        "params": {
          "handlerAddress": "Address of handler resource will be set for.",
          "tokenAddress": "Address of contract to be called when a deposit is made and a deposited is executed."
        }
      },
      "adminSetResource(address,bytes32,address)": {
        "params": {
          "handlerAddress": "Address of handler resource will be set for.",
          "resourceID": "ResourceID to be used when making deposits.",
          "tokenAddress": "Address of contract to be called when a deposit is made and a deposited is executed."
        }
      },
      "adminWithdraw(address,address,address,uint256)": {
        "params": {
          "amount": "Either the amount of ERC20 tokens to release.",
          "handlerAddress": "Address of handler to withdraw from.",
          "recipient": "Address to withdraw tokens to.",
          "tokenAddress": "Address of token to withdraw."
        }
      },
      "cancelProposal(uint8,uint64,bytes32)": {
        "params": {
          "chainID": "ID of chain deposit originated from.",
          "dataHash": "Hash of data originally provided when deposit was made.",
          "depositNonce": "ID of deposited generated by origin Bridge contract."
        }
      },
      "constructor": {
        "params": {
          "chainID": "ID of chain the Bridge contract exists on.",
          "initialRelayerThreshold": "Number of votes needed for a deposit proposal to be considered passed.",
          "initialRelayers": "Addresses that should be initially granted the relayer role."
        }
      },
      "deposit(uint8,bytes32,bytes)": {
        "params": {
          "data": "Additional data to be passed to specified handler.",
          "destinationChainID": "ID of chain deposit will be bridged to.",
          "resourceID": "ResourceID used to find address of handler to be used for deposit."
        }
      },
      "executeProposal(uint8,uint64,bytes,bytes32)": {
        "params": {
          "chainID": "ID of chain deposit originated from.",
          "data": "Data originally provided when deposit was made.",
          "depositNonce": "ID of deposited generated by origin Bridge contract.",
          "resourceID": "ResourceID to be used when making deposits."
        }
      },
      "getProposal(uint8,uint64,bytes32)": {
        "params": {
          "dataHash": "Hash of data to be provided when deposit proposal is executed.",
          "depositNonce": "ID of proposal generated by proposal's origin Bridge contract.",
          "originChainID": "Chain ID deposit originated from."
        },
        "returns": {
          "_0": "Proposal which consists of: - _dataHash Hash of data to be provided when deposit proposal is executed. - _yesVotes Number of votes in favor of proposal. - _noVotes Number of votes against proposal. - _status Current status of proposal."
        }
      },
      "getRoleAdmin(bytes32)": {
        "details": "Returns the admin role that controls `role`. See {grantRole} and {revokeRole}. To change a role's admin, use {_setRoleAdmin}."
      },
      "getRoleMember(bytes32,uint256)": {
        "details": "Returns one of the accounts that have `role`. `index` must be a value between 0 and {getRoleMemberCount}, non-inclusive. Role bearers are not sorted in any particular way, and their ordering may change at any point. WARNING: When using {getRoleMember} and {getRoleMemberCount}, make sure you perform all queries on the same block. See the following https://forum.openzeppelin.com/t/iterating-over-elements-on-enumerableset-in-openzeppelin-contracts/2296[forum post] for more information."
      },
      "getRoleMemberCount(bytes32)": {
        "details": "Returns the number of accounts that have `role`. Can be used together with {getRoleMember} to enumerate all bearers of a role."
      },
      "grantRole(bytes32,address)": {
        "details": "Grants `role` to `account`. If `account` had not been already granted `role`, emits a {RoleGranted} event. Requirements: - the caller must have ``role``'s admin role."
      },
      "hasRole(bytes32,address)": {
        "details": "Returns `true` if `account` has been granted `role`."
      },
      "isRelayer(address)": {
        "params": {
          "relayer": "Address to check."
        }
      },
      "paused()": {
        "details": "Returns true if the contract is paused, and false otherwise."
      },
      "renounceAdmin(address)": {
        "params": {
          "newAdmin": "Address that admin role will be granted to."
        }
      },
      "renounceRole(bytes32,address)": {
        "details": "Revokes `role` from the calling account. Roles are often managed via {grantRole} and {revokeRole}: this function's purpose is to provide a mechanism for accounts to lose their privileges if they are compromised (such as when a trusted device is misplaced). If the calling account had been granted `role`, emits a {RoleRevoked} event. Requirements: - the caller must be `account`."
      },
      "revokeRole(bytes32,address)": {
        "details": "Revokes `role` from `account`. If `account` had been granted `role`, emits a {RoleRevoked} event. Requirements: - the caller must have ``role``'s admin role."
      },
      "transferFunds(address[],uint256[])": {
        "params": {
          "addrs": "Array of addresses to transfer {amounts} to.",
          "amounts": "Array of amonuts to transfer to {addrs}."
        }
      },
      "voteProposal(uint8,uint64,bytes32,bytes32)": {
        "params": {
          "chainID": "ID of chain deposit originated from.",
          "dataHash": "Hash of data provided when deposit was made.",
          "depositNonce": "ID of deposited generated by origin Bridge contract."
        }
      }
    },
    "title": "Facilitates deposits, creation and votiing of deposit proposals, and deposit executions.",
    "version": 1
  },
  "userdoc": {
    "kind": "user",
    "methods": {
      "adminAddRelayer(address)": {
        "notice": "Grants {relayerAddress} the relayer role and increases {_totalRelayer} count.Only callable by an address that currently has the admin role.Emits {RelayerAdded} event."
      },
      "adminChangeFee(uint256)": {
        "notice": "Changes deposit fee.Only callable by admin."
      },
      "adminChangeRelayerThreshold(uint256)": {
        "notice": "Modifies the number of votes required for a proposal to be considered passed.Only callable by an address that currently has the admin role.Emits {RelayerThresholdChanged} event."
      },
      "adminPauseTransfers()": {
        "notice": "Pauses deposits, proposal creation and voting, and deposit executions.Only callable by an address that currently has the admin role."
      },
      "adminRemoveRelayer(address)": {
        "notice": "Removes relayer role for {relayerAddress} and decreases {_totalRelayer} count.Only callable by an address that currently has the admin role.Emits {RelayerRemoved} event."
      },
      "adminSetBurnable(address,address)": {
        "notice": "Sets a resource as burnable for handler contracts that use the IERCHandler interface.Only callable by an address that currently has the admin role."
      },
      "adminSetResource(address,bytes32,address)": {
        "notice": "Sets a new resource for handler contracts that use the IERCHandler interface, and maps the {handlerAddress} to {resourceID} in {_resourceIDToHandlerAddress}.Only callable by an address that currently has the admin role."
      },
      "adminUnpauseTransfers()": {
        "notice": "Unpauses deposits, proposal creation and voting, and deposit executions.Only callable by an address that currently has the admin role."
      },
      "adminWithdraw(address,address,address,uint256)": {
        "notice": "Used to manually withdraw funds from ERC safes."
      },
      "cancelProposal(uint8,uint64,bytes32)": {
        "notice": "Executes a deposit proposal that is considered passed using a specified handler contract.Only callable by relayers when Bridge is not paused.Proposal must be past expiry threshold.Emits {ProposalEvent} event with status {Cancelled}."
      },
      "constructor": {
        "notice": "Initializes Bridge, creates and grants {msg.sender} the admin role, creates and grants {initialRelayers} the relayer role."
      },
      "deposit(uint8,bytes32,bytes)": {
        "notice": "Initiates a transfer using a specified handler contract.Only callable when Bridge is not paused.Emits {Deposit} event."
      },
      "executeProposal(uint8,uint64,bytes,bytes32)": {
        "notice": "Executes a deposit proposal that is considered passed using a specified handler contract.Only callable by relayers when Bridge is not paused.Proposal must have Passed status.Hash of {data} must equal proposal's {dataHash}.Emits {ProposalEvent} event with status {Executed}."
      },
      "getProposal(uint8,uint64,bytes32)": {
        "notice": "Returns a proposal."
      },
      "isRelayer(address)": {
        "notice": "Returns true if {relayer} has the relayer role."
      },
      "renounceAdmin(address)": {
        "notice": "Removes admin role from {msg.sender} and grants it to {newAdmin}.Only callable by an address that currently has the admin role."
      },
      "transferFunds(address[],uint256[])": {
        "notice": "Transfers eth in the contract to the specified addresses. The parameters addrs and amounts are mapped 1-1. This means that the address at index 0 for addrs will receive the amount (in WEI) from amounts at index 0."
      },
      "voteProposal(uint8,uint64,bytes32,bytes32)": {
        "notice": "When called, {msg.sender} will be marked as voting in favor of proposal.Only callable by relayers when Bridge is not paused.Proposal must not have already been passed or executed.{msg.sender} must not have already voted on proposal.Emits {ProposalEvent} event with status indicating the proposal status.Emits {ProposalVote} event."
      }
    },
    "version": 1
  }
}