{
    "contractName": "SelendraHandle",
    "abi": [
        {
            "inputs": [
                {
                    "internalType": "address",
                    "name": "_wrappedSelendra",
                    "type": "address"
                },
                {
                    "internalType": "address",
                    "name": "_selendraV2",
                    "type": "address"
                }
            ],
            "stateMutability": "nonpayable",
            "type": "constructor"
        },
        {
            "inputs": [],
            "name": "selendraV2",
            "outputs": [
                {
                    "internalType": "contract ISelendraV2",
                    "name": "",
                    "type": "address"
                }
            ],
            "stateMutability": "view",
            "type": "function"
        },
        {
            "inputs": [],
            "name": "wrappedSelendra",
            "outputs": [
                {
                    "internalType": "contract ERC20PresetMinterPauser",
                    "name": "",
                    "type": "address"
                }
            ],
            "stateMutability": "view",
            "type": "function"
        },
        {
            "inputs": [
                {
                    "internalType": "uint256",
                    "name": "amount",
                    "type": "uint256"
                }
            ],
            "name": "swapBridge",
            "outputs": [],
            "stateMutability": "nonpayable",
            "type": "function"
        },
        {
            "inputs": [
                {
                    "internalType": "uint256",
                    "name": "amount",
                    "type": "uint256"
                }
            ],
            "name": "withdraw",
            "outputs": [],
            "stateMutability": "nonpayable",
            "type": "function"
        }
    ],
    "bytecode": "0x608060405234801561001057600080fd5b506040516106c03803806106c08339818101604052604081101561003357600080fd5b810190808051906020019092919080519060200190929190505050816000806101000a81548173ffffffffffffffffffffffffffffffffffffffff021916908373ffffffffffffffffffffffffffffffffffffffff16021790555080600160006101000a81548173ffffffffffffffffffffffffffffffffffffffff021916908373ffffffffffffffffffffffffffffffffffffffff16021790555050506105e0806100e06000396000f3fe608060405234801561001057600080fd5b506004361061004c5760003560e01c80630337c2ef14610051578063230ff0411461007f5780632e1a7d4d146100b3578063fd3be816146100e1575b600080fd5b61007d6004803603602081101561006757600080fd5b8101908080359060200190929190505050610115565b005b6100876102ae565b604051808273ffffffffffffffffffffffffffffffffffffffff16815260200191505060405180910390f35b6100df600480360360208110156100c957600080fd5b81019080803590602001909291905050506102d4565b005b6100e9610586565b604051808273ffffffffffffffffffffffffffffffffffffffff16815260200191505060405180910390f35b600160009054906101000a900473ffffffffffffffffffffffffffffffffffffffff1673ffffffffffffffffffffffffffffffffffffffff166323b872dd3330846040518463ffffffff1660e01b8152600401808473ffffffffffffffffffffffffffffffffffffffff1681526020018373ffffffffffffffffffffffffffffffffffffffff1681526020018281526020019350505050602060405180830381600087803b1580156101c657600080fd5b505af11580156101da573d6000803e3d6000fd5b505050506040513d60208110156101f057600080fd5b81019080805190602001909291905050505060008054906101000a900473ffffffffffffffffffffffffffffffffffffffff1673ffffffffffffffffffffffffffffffffffffffff166340c10f1933836040518363ffffffff1660e01b8152600401808373ffffffffffffffffffffffffffffffffffffffff16815260200182815260200192505050600060405180830381600087803b15801561029357600080fd5b505af11580156102a7573d6000803e3d6000fd5b5050505050565b600160009054906101000a900473ffffffffffffffffffffffffffffffffffffffff1681565b8060008054906101000a900473ffffffffffffffffffffffffffffffffffffffff1673ffffffffffffffffffffffffffffffffffffffff166370a08231336040518263ffffffff1660e01b8152600401808273ffffffffffffffffffffffffffffffffffffffff16815260200191505060206040518083038186803b15801561035c57600080fd5b505afa158015610370573d6000803e3d6000fd5b505050506040513d602081101561038657600080fd5b8101908080519060200190929190505050101561040b576040517f08c379a000000000000000000000000000000000000000000000000000000000815260040180806020018281038252600f8152602001807f62616c616e636520746f6f206c6f77000000000000000000000000000000000081525060200191505060405180910390fd5b60008054906101000a900473ffffffffffffffffffffffffffffffffffffffff1673ffffffffffffffffffffffffffffffffffffffff166379cc679033836040518363ffffffff1660e01b8152600401808373ffffffffffffffffffffffffffffffffffffffff16815260200182815260200192505050600060405180830381600087803b15801561049c57600080fd5b505af11580156104b0573d6000803e3d6000fd5b50505050600160009054906101000a900473ffffffffffffffffffffffffffffffffffffffff1673ffffffffffffffffffffffffffffffffffffffff1663a9059cbb33836040518363ffffffff1660e01b8152600401808373ffffffffffffffffffffffffffffffffffffffff16815260200182815260200192505050602060405180830381600087803b15801561054757600080fd5b505af115801561055b573d6000803e3d6000fd5b505050506040513d602081101561057157600080fd5b81019080805190602001909291905050505050565b60008054906101000a900473ffffffffffffffffffffffffffffffffffffffff168156fea26469706673582212201ed16a59eeb75eab27843c7ee8de07baceda7a6031617d4671b61abaef280f1a64736f6c63430007000033",
    "immutableReferences": {},
    "source": "// SPDX-License-Identifier: LGPL-3.0-only\npragma solidity >=0.6.0 <0.8.0;\n\nimport \"@openzeppelin/contracts/presets/ERC20PresetMinterPauser.sol\";\nimport \"./interfaces/ISelendraV2.sol\";\n\ncontract SelendraHandle {\n    ERC20PresetMinterPauser public wrappedSelendra;\n    ISelendraV2 public selendraV2;\n\n    constructor(address _wrappedSelendra, address _selendraV2) {\n        wrappedSelendra = ERC20PresetMinterPauser(_wrappedSelendra);\n        selendraV2 = ISelendraV2(_selendraV2);\n    }\n\n    function swapBridge(uint256 amount) external {\n        selendraV2.transferFrom(msg.sender, address(this), amount);\n        wrappedSelendra.mint(msg.sender, amount);\n    }\n\n    function withdraw(uint256 amount) external {\n        require(wrappedSelendra.balanceOf(msg.sender) >= amount, \"balance too low\");\n        wrappedSelendra.burnFrom(msg.sender, amount);\n        selendraV2.transfer(msg.sender, amount);\n    }\n\n    modifier isSelendraToken(address token) {\n        require(token == address(selendraV2), \"token is selendra v2\");\n        _;  \n    }\n}",
    "sourcePath": "/home/nath/project/bridge/bridge-cli/solidity-contract/contracts/SelendraHandler.sol",
    "compiler": {
        "name": "solc",
        "version": "0.7.0+commit.9e61f92b.Emscripten.clang"
    },
    "schemaVersion": "3.4.4",
    "updatedAt": "2022-03-21T02:50:25.522Z",
    "devdoc": {
        "kind": "dev",
        "methods": {},
        "version": 1
    },
    "userdoc": {
        "kind": "user",
        "methods": {},
        "version": 1
    }
}